{
  "_format": "hh-sol-artifact-1",
  "contractName": "EVoting",
  "sourceName": "contracts/EVoting.sol",
  "abi": [
    {
      "inputs": [],
      "stateMutability": "nonpayable",
      "type": "constructor"
    },
    {
      "anonymous": false,
      "inputs": [
        {
          "indexed": true,
          "internalType": "uint256",
          "name": "id",
          "type": "uint256"
        },
        {
          "indexed": false,
          "internalType": "string",
          "name": "name",
          "type": "string"
        }
      ],
      "name": "CandidateAdded",
      "type": "event"
    },
    {
      "anonymous": false,
      "inputs": [
        {
          "indexed": true,
          "internalType": "bytes32",
          "name": "identityHash",
          "type": "bytes32"
        }
      ],
      "name": "IdentityRegistered",
      "type": "event"
    },
    {
      "anonymous": false,
      "inputs": [
        {
          "indexed": true,
          "internalType": "uint256",
          "name": "candidateId",
          "type": "uint256"
        },
        {
          "indexed": true,
          "internalType": "bytes32",
          "name": "identityHash",
          "type": "bytes32"
        },
        {
          "indexed": true,
          "internalType": "address",
          "name": "by",
          "type": "address"
        }
      ],
      "name": "VoteRecorded",
      "type": "event"
    },
    {
      "inputs": [
        {
          "internalType": "string",
          "name": "_name",
          "type": "string"
        }
      ],
      "name": "addCandidate",
      "outputs": [],
      "stateMutability": "nonpayable",
      "type": "function"
    },
    {
      "inputs": [],
      "name": "admin",
      "outputs": [
        {
          "internalType": "address",
          "name": "",
          "type": "address"
        }
      ],
      "stateMutability": "view",
      "type": "function"
    },
    {
      "inputs": [
        {
          "internalType": "uint256",
          "name": "",
          "type": "uint256"
        }
      ],
      "name": "candidates",
      "outputs": [
        {
          "internalType": "uint256",
          "name": "id",
          "type": "uint256"
        },
        {
          "internalType": "string",
          "name": "name",
          "type": "string"
        },
        {
          "internalType": "uint256",
          "name": "voteCount",
          "type": "uint256"
        }
      ],
      "stateMutability": "view",
      "type": "function"
    },
    {
      "inputs": [],
      "name": "candidatesCount",
      "outputs": [
        {
          "internalType": "uint256",
          "name": "",
          "type": "uint256"
        }
      ],
      "stateMutability": "view",
      "type": "function"
    },
    {
      "inputs": [
        {
          "internalType": "uint256",
          "name": "_candidateId",
          "type": "uint256"
        }
      ],
      "name": "getVoteCount",
      "outputs": [
        {
          "internalType": "uint256",
          "name": "",
          "type": "uint256"
        }
      ],
      "stateMutability": "view",
      "type": "function"
    },
    {
      "inputs": [
        {
          "internalType": "bytes32",
          "name": "",
          "type": "bytes32"
        }
      ],
      "name": "hasVoted",
      "outputs": [
        {
          "internalType": "bool",
          "name": "",
          "type": "bool"
        }
      ],
      "stateMutability": "view",
      "type": "function"
    },
    {
      "inputs": [
        {
          "internalType": "bytes32",
          "name": "identityHash",
          "type": "bytes32"
        }
      ],
      "name": "isRegistered",
      "outputs": [
        {
          "internalType": "bool",
          "name": "",
          "type": "bool"
        }
      ],
      "stateMutability": "view",
      "type": "function"
    },
    {
      "inputs": [
        {
          "internalType": "bytes32",
          "name": "identityHash",
          "type": "bytes32"
        }
      ],
      "name": "registerIdentity",
      "outputs": [],
      "stateMutability": "nonpayable",
      "type": "function"
    },
    {
      "inputs": [
        {
          "internalType": "bytes32",
          "name": "",
          "type": "bytes32"
        }
      ],
      "name": "registeredVoters",
      "outputs": [
        {
          "internalType": "bool",
          "name": "",
          "type": "bool"
        }
      ],
      "stateMutability": "view",
      "type": "function"
    },
    {
      "inputs": [
        {
          "internalType": "uint256",
          "name": "_candidateId",
          "type": "uint256"
        },
        {
          "internalType": "bytes32",
          "name": "identityHash",
          "type": "bytes32"
        }
      ],
      "name": "vote",
      "outputs": [],
      "stateMutability": "nonpayable",
      "type": "function"
    }
  ],
  "bytecode": "0x608060405234801561001057600080fd5b50336000806101000a81548173ffffffffffffffffffffffffffffffffffffffff021916908373ffffffffffffffffffffffffffffffffffffffff160217905550611237806100606000396000f3fe608060405234801561001057600080fd5b506004361061009e5760003560e01c80633477ee2e116100665780633477ee2e1461016d578063462e91ec1461019f57806368bb8bb6146101bb578063b2c2f2e8146101d7578063f851a440146102075761009e565b806307ba279a146100a3578063103d9fae146100d35780631b4613cb146100ef57806327258b221461011f5780632d35a8a21461014f575b600080fd5b6100bd60048036038101906100b8919061082e565b610225565b6040516100ca9190610876565b60405180910390f35b6100ed60048036038101906100e8919061082e565b610245565b005b6101096004803603810190610104919061082e565b610390565b6040516101169190610876565b60405180910390f35b6101396004803603810190610134919061082e565b6103b0565b6040516101469190610876565b60405180910390f35b6101576103da565b60405161016491906108aa565b60405180910390f35b610187600480360381019061018291906108f1565b6103e0565b604051610196939291906109ae565b60405180910390f35b6101b960048036038101906101b49190610b21565b610492565b005b6101d560048036038101906101d09190610b6a565b6105f9565b005b6101f160048036038101906101ec91906108f1565b6107a0565b6040516101fe91906108aa565b60405180910390f35b61020f6107c0565b60405161021c9190610beb565b60405180910390f35b60046020528060005260406000206000915054906101000a900460ff1681565b60008054906101000a900473ffffffffffffffffffffffffffffffffffffffff1673ffffffffffffffffffffffffffffffffffffffff163373ffffffffffffffffffffffffffffffffffffffff16146102d3576040517f08c379a00000000000000000000000000000000000000000000000000000000081526004016102ca90610c52565b60405180910390fd5b6004600082815260200190815260200160002060009054906101000a900460ff1615610334576040517f08c379a000000000000000000000000000000000000000000000000000000000815260040161032b90610cbe565b60405180910390fd5b60016004600083815260200190815260200160002060006101000a81548160ff021916908315150217905550807faa0f0595048647c2a059f3a0bd335bab2b5e7679beef135e5585a358ac94a1cf60405160405180910390a250565b60036020528060005260406000206000915054906101000a900460ff1681565b60006004600083815260200190815260200160002060009054906101000a900460ff169050919050565b60025481565b600160205280600052604060002060009150905080600001549080600101805461040990610d0d565b80601f016020809104026020016040519081016040528092919081815260200182805461043590610d0d565b80156104825780601f1061045757610100808354040283529160200191610482565b820191906000526020600020905b81548152906001019060200180831161046557829003601f168201915b5050505050908060020154905083565b60008054906101000a900473ffffffffffffffffffffffffffffffffffffffff1673ffffffffffffffffffffffffffffffffffffffff163373ffffffffffffffffffffffffffffffffffffffff1614610520576040517f08c379a000000000000000000000000000000000000000000000000000000000815260040161051790610c52565b60405180910390fd5b6002600081548092919061053390610d6d565b9190505550604051806060016040528060016002546105529190610db5565b815260200182815260200160008152506001600060016002546105759190610db5565b81526020019081526020016000206000820151816000015560208201518160010190816105a29190610f95565b506040820151816002015590505060016002546105bf9190610db5565b7fe83b2a43e7e82d975c8a0a6d2f045153c869e111136a34d1889ab7b598e396a3826040516105ee9190611067565b60405180910390a250565b6004600082815260200190815260200160002060009054906101000a900460ff16610659576040517f08c379a0000000000000000000000000000000000000000000000000000000008152600401610650906110d5565b60405180910390fd5b6003600082815260200190815260200160002060009054906101000a900460ff16156106ba576040517f08c379a00000000000000000000000000000000000000000000000000000000081526004016106b190611141565b60405180910390fd5b60025482106106fe576040517f08c379a00000000000000000000000000000000000000000000000000000000081526004016106f5906111ad565b60405180910390fd5b60016003600083815260200190815260200160002060006101000a81548160ff0219169083151502179055506001806000848152602001908152602001600020600201600082825461075091906111cd565b925050819055503373ffffffffffffffffffffffffffffffffffffffff1681837f77176b009952cf3eedf8f321daf05dfc012cbe63a3a2c2dc2ffed3e7643c152360405160405180910390a45050565b600060016000838152602001908152602001600020600201549050919050565b60008054906101000a900473ffffffffffffffffffffffffffffffffffffffff1681565b6000604051905090565b600080fd5b600080fd5b6000819050919050565b61080b816107f8565b811461081657600080fd5b50565b60008135905061082881610802565b92915050565b600060208284031215610844576108436107ee565b5b600061085284828501610819565b91505092915050565b60008115159050919050565b6108708161085b565b82525050565b600060208201905061088b6000830184610867565b92915050565b6000819050919050565b6108a481610891565b82525050565b60006020820190506108bf600083018461089b565b92915050565b6108ce81610891565b81146108d957600080fd5b50565b6000813590506108eb816108c5565b92915050565b600060208284031215610907576109066107ee565b5b6000610915848285016108dc565b91505092915050565b600081519050919050565b600082825260208201905092915050565b60005b8381101561095857808201518184015260208101905061093d565b60008484015250505050565b6000601f19601f8301169050919050565b60006109808261091e565b61098a8185610929565b935061099a81856020860161093a565b6109a381610964565b840191505092915050565b60006060820190506109c3600083018661089b565b81810360208301526109d58185610975565b90506109e4604083018461089b565b949350505050565b600080fd5b600080fd5b7f4e487b7100000000000000000000000000000000000000000000000000000000600052604160045260246000fd5b610a2e82610964565b810181811067ffffffffffffffff82111715610a4d57610a4c6109f6565b5b80604052505050565b6000610a606107e4565b9050610a6c8282610a25565b919050565b600067ffffffffffffffff821115610a8c57610a8b6109f6565b5b610a9582610964565b9050602081019050919050565b82818337600083830152505050565b6000610ac4610abf84610a71565b610a56565b905082815260208101848484011115610ae057610adf6109f1565b5b610aeb848285610aa2565b509392505050565b600082601f830112610b0857610b076109ec565b5b8135610b18848260208601610ab1565b91505092915050565b600060208284031215610b3757610b366107ee565b5b600082013567ffffffffffffffff811115610b5557610b546107f3565b5b610b6184828501610af3565b91505092915050565b60008060408385031215610b8157610b806107ee565b5b6000610b8f858286016108dc565b9250506020610ba085828601610819565b9150509250929050565b600073ffffffffffffffffffffffffffffffffffffffff82169050919050565b6000610bd582610baa565b9050919050565b610be581610bca565b82525050565b6000602082019050610c006000830184610bdc565b92915050565b7f61646d696e206f6e6c7900000000000000000000000000000000000000000000600082015250565b6000610c3c600a83610929565b9150610c4782610c06565b602082019050919050565b60006020820190508181036000830152610c6b81610c2f565b9050919050565b7f616c726561647920726567697374657265640000000000000000000000000000600082015250565b6000610ca8601283610929565b9150610cb382610c72565b602082019050919050565b60006020820190508181036000830152610cd781610c9b565b9050919050565b7f4e487b7100000000000000000000000000000000000000000000000000000000600052602260045260246000fd5b60006002820490506001821680610d2557607f821691505b602082108103610d3857610d37610cde565b5b50919050565b7f4e487b7100000000000000000000000000000000000000000000000000000000600052601160045260246000fd5b6000610d7882610891565b91507fffffffffffffffffffffffffffffffffffffffffffffffffffffffffffffffff8203610daa57610da9610d3e565b5b600182019050919050565b6000610dc082610891565b9150610dcb83610891565b9250828203905081811115610de357610de2610d3e565b5b92915050565b60008190508160005260206000209050919050565b60006020601f8301049050919050565b600082821b905092915050565b600060088302610e4b7fffffffffffffffffffffffffffffffffffffffffffffffffffffffffffffffff82610e0e565b610e558683610e0e565b95508019841693508086168417925050509392505050565b6000819050919050565b6000610e92610e8d610e8884610891565b610e6d565b610891565b9050919050565b6000819050919050565b610eac83610e77565b610ec0610eb882610e99565b848454610e1b565b825550505050565b600090565b610ed5610ec8565b610ee0818484610ea3565b505050565b5b81811015610f0457610ef9600082610ecd565b600181019050610ee6565b5050565b601f821115610f4957610f1a81610de9565b610f2384610dfe565b81016020851015610f32578190505b610f46610f3e85610dfe565b830182610ee5565b50505b505050565b600082821c905092915050565b6000610f6c60001984600802610f4e565b1980831691505092915050565b6000610f858383610f5b565b9150826002028217905092915050565b610f9e8261091e565b67ffffffffffffffff811115610fb757610fb66109f6565b5b610fc18254610d0d565b610fcc828285610f08565b600060209050601f831160018114610fff5760008415610fed578287015190505b610ff78582610f79565b86555061105f565b601f19841661100d86610de9565b60005b8281101561103557848901518255600182019150602085019450602081019050611010565b86831015611052578489015161104e601f891682610f5b565b8355505b6001600288020188555050505b505050505050565b600060208201905081810360008301526110818184610975565b905092915050565b7f6964656e74697479206e6f742072656769737465726564000000000000000000600082015250565b60006110bf601783610929565b91506110ca82611089565b602082019050919050565b600060208201905081810360008301526110ee816110b2565b9050919050565b7f616c726561647920766f74656400000000000000000000000000000000000000600082015250565b600061112b600d83610929565b9150611136826110f5565b602082019050919050565b6000602082019050818103600083015261115a8161111e565b9050919050565b7f696e76616c69642063616e646964617465000000000000000000000000000000600082015250565b6000611197601183610929565b91506111a282611161565b602082019050919050565b600060208201905081810360008301526111c68161118a565b9050919050565b60006111d882610891565b91506111e383610891565b92508282019050808211156111fb576111fa610d3e565b5b9291505056fea26469706673582212201363b9a8e4ee93585b59fc4e25110c2da7e12f7edacb42226e88dd2329c79e5f64736f6c63430008120033",
  "linkReferences": {},
  "deployedLinkReferences": {}
}